{
  "_format": "hh-sol-artifact-1",
  "contractName": "PongTournament",
  "sourceName": "contracts/PongTournament.sol",
  "abi": [
    {
      "inputs": [],
      "stateMutability": "nonpayable",
      "type": "constructor"
    },
    {
      "anonymous": false,
      "inputs": [
        {
          "indexed": false,
          "internalType": "uint256",
          "name": "hash",
          "type": "uint256"
        },
        {
          "indexed": false,
          "internalType": "uint256",
          "name": "timestamp",
          "type": "uint256"
        }
      ],
      "name": "matchCreated",
      "type": "event"
    },
    {
      "anonymous": false,
      "inputs": [
        {
          "indexed": false,
          "internalType": "uint256",
          "name": "hash",
          "type": "uint256"
        },
        {
          "indexed": false,
          "internalType": "uint256",
          "name": "timestamp",
          "type": "uint256"
        }
      ],
      "name": "playerCreated",
      "type": "event"
    },
    {
      "anonymous": false,
      "inputs": [
        {
          "indexed": false,
          "internalType": "uint256",
          "name": "hash",
          "type": "uint256"
        },
        {
          "indexed": false,
          "internalType": "uint256",
          "name": "winner",
          "type": "uint256"
        },
        {
          "indexed": false,
          "internalType": "uint256",
          "name": "timestamp",
          "type": "uint256"
        }
      ],
      "name": "tournamentCreated",
      "type": "event"
    },
    {
      "inputs": [
        {
          "internalType": "uint256",
          "name": "_matchId",
          "type": "uint256"
        },
        {
          "internalType": "uint256",
          "name": "_tournamentId",
          "type": "uint256"
        },
        {
          "internalType": "uint256[]",
          "name": "_playersHash",
          "type": "uint256[]"
        },
        {
          "internalType": "uint8[]",
          "name": "_scores",
          "type": "uint8[]"
        },
        {
          "internalType": "uint256",
          "name": "_winner",
          "type": "uint256"
        }
      ],
      "name": "addMatch",
      "outputs": [],
      "stateMutability": "nonpayable",
      "type": "function"
    },
    {
      "inputs": [
        {
          "internalType": "uint256",
          "name": "_hash",
          "type": "uint256"
        },
        {
          "internalType": "string",
          "name": "_alias",
          "type": "string"
        }
      ],
      "name": "addPlayer",
      "outputs": [],
      "stateMutability": "nonpayable",
      "type": "function"
    },
    {
      "inputs": [
        {
          "internalType": "uint256",
          "name": "_tournamentId",
          "type": "uint256"
        },
        {
          "internalType": "uint256",
          "name": "_winner",
          "type": "uint256"
        }
      ],
      "name": "createTournament",
      "outputs": [],
      "stateMutability": "nonpayable",
      "type": "function"
    },
    {
      "inputs": [
        {
          "internalType": "uint256",
          "name": "_id",
          "type": "uint256"
        }
      ],
      "name": "getMatchScore",
      "outputs": [
        {
          "internalType": "uint8[]",
          "name": "",
          "type": "uint8[]"
        }
      ],
      "stateMutability": "view",
      "type": "function"
    },
    {
      "inputs": [
        {
          "internalType": "uint256",
          "name": "_matchId",
          "type": "uint256"
        }
      ],
      "name": "getMatchWinner",
      "outputs": [
        {
          "components": [
            {
              "internalType": "uint256",
              "name": "hash",
              "type": "uint256"
            },
            {
              "internalType": "uint32",
              "name": "totalScore",
              "type": "uint32"
            },
            {
              "internalType": "uint32",
              "name": "matchWon",
              "type": "uint32"
            },
            {
              "internalType": "uint32",
              "name": "tournamentWon",
              "type": "uint32"
            },
            {
              "internalType": "string",
              "name": "aliasName",
              "type": "string"
            },
            {
              "internalType": "address",
              "name": "addr",
              "type": "address"
            }
          ],
          "internalType": "struct PongTournament.Player",
          "name": "",
          "type": "tuple"
        }
      ],
      "stateMutability": "view",
      "type": "function"
    },
    {
      "inputs": [
        {
          "internalType": "uint256",
          "name": "_id",
          "type": "uint256"
        }
      ],
      "name": "getMatchWinnerName",
      "outputs": [
        {
          "internalType": "string",
          "name": "",
          "type": "string"
        }
      ],
      "stateMutability": "view",
      "type": "function"
    },
    {
      "inputs": [
        {
          "internalType": "uint256",
          "name": "_hash",
          "type": "uint256"
        }
      ],
      "name": "getPlayerName",
      "outputs": [
        {
          "internalType": "string",
          "name": "",
          "type": "string"
        }
      ],
      "stateMutability": "view",
      "type": "function"
    },
    {
      "inputs": [
        {
          "internalType": "uint256",
          "name": "_hash",
          "type": "uint256"
        }
      ],
      "name": "getPlayerScore",
      "outputs": [
        {
          "internalType": "uint32",
          "name": "",
          "type": "uint32"
        }
      ],
      "stateMutability": "view",
      "type": "function"
    },
    {
      "inputs": [
        {
          "internalType": "uint256",
          "name": "_id",
          "type": "uint256"
        }
      ],
      "name": "getTournamentWinnerName",
      "outputs": [
        {
          "internalType": "string",
          "name": "",
          "type": "string"
        }
      ],
      "stateMutability": "view",
      "type": "function"
    },
    {
      "inputs": [
        {
          "internalType": "uint256",
          "name": "",
          "type": "uint256"
        }
      ],
      "name": "matches",
      "outputs": [
        {
          "internalType": "uint256",
          "name": "tournamentId",
          "type": "uint256"
        },
        {
          "internalType": "uint256",
          "name": "winnerID",
          "type": "uint256"
        }
      ],
      "stateMutability": "view",
      "type": "function"
    },
    {
      "inputs": [],
      "name": "owner",
      "outputs": [
        {
          "internalType": "address",
          "name": "",
          "type": "address"
        }
      ],
      "stateMutability": "view",
      "type": "function"
    },
    {
      "inputs": [
        {
          "internalType": "uint256",
          "name": "",
          "type": "uint256"
        }
      ],
      "name": "players",
      "outputs": [
        {
          "internalType": "uint256",
          "name": "hash",
          "type": "uint256"
        },
        {
          "internalType": "uint32",
          "name": "totalScore",
          "type": "uint32"
        },
        {
          "internalType": "uint32",
          "name": "matchWon",
          "type": "uint32"
        },
        {
          "internalType": "uint32",
          "name": "tournamentWon",
          "type": "uint32"
        },
        {
          "internalType": "string",
          "name": "aliasName",
          "type": "string"
        },
        {
          "internalType": "address",
          "name": "addr",
          "type": "address"
        }
      ],
      "stateMutability": "view",
      "type": "function"
    },
    {
      "inputs": [
        {
          "internalType": "uint256",
          "name": "",
          "type": "uint256"
        }
      ],
      "name": "tournamentExists",
      "outputs": [
        {
          "internalType": "bool",
          "name": "",
          "type": "bool"
        }
      ],
      "stateMutability": "view",
      "type": "function"
    },
    {
      "inputs": [
        {
          "internalType": "uint256",
          "name": "",
          "type": "uint256"
        }
      ],
      "name": "tournaments",
      "outputs": [
        {
          "internalType": "uint256",
          "name": "winnerID",
          "type": "uint256"
        }
      ],
      "stateMutability": "view",
      "type": "function"
    },
    {
      "inputs": [
        {
          "internalType": "uint256",
          "name": "playerHash",
          "type": "uint256"
        },
        {
          "internalType": "uint8",
          "name": "score",
          "type": "uint8"
        }
      ],
      "name": "updateTotalScore",
      "outputs": [],
      "stateMutability": "nonpayable",
      "type": "function"
    }
  ],
  "bytecode": "0x608060405234801561001057600080fd5b50336000806101000a81548173ffffffffffffffffffffffffffffffffffffffff021916908373ffffffffffffffffffffffffffffffffffffffff1602179055506124f4806100606000396000f3fe608060405234801561001057600080fd5b50600436106100f55760003560e01c806382e37b2c116100975780639b0197ce116100665780639b0197ce146102e5578063b9831f6514610301578063d1e8a3651461031d578063f71d96cb14610339576100f5565b806382e37b2c1461023757806389102882146102675780638da5cb5b1461029757806390fdacf4146102b5576100f5565b80634b5f8003116100d35780634b5f80031461018b578063695e615a146101bb578063704743df146101eb5780637503e1b714610207576100f5565b806303b7dc7b146100fa578063115901861461012a5780634768d4ef1461015a575b600080fd5b610114600480360381019061010f91906115d4565b61036e565b6040516101219190611691565b60405180910390f35b610144600480360381019061013f91906115d4565b610432565b60405161015191906117f5565b60405180910390f35b610174600480360381019061016f91906115d4565b6105d9565b604051610182929190611826565b60405180910390f35b6101a560048036038101906101a091906115d4565b6105fd565b6040516101b2919061191a565b60405180910390f35b6101d560048036038101906101d091906115d4565b610691565b6040516101e29190611957565b60405180910390f35b610205600480360381019061020091906119d7565b6106b1565b005b610221600480360381019061021c91906115d4565b6107db565b60405161022e9190611a37565b60405180910390f35b610251600480360381019061024c91906115d4565b6107f9565b60405161025e9190611691565b60405180910390f35b610281600480360381019061027c91906115d4565b6108a1565b60405161028e9190611691565b60405180910390f35b61029f610965565b6040516102ac9190611a61565b60405180910390f35b6102cf60048036038101906102ca91906115d4565b610989565b6040516102dc9190611a8b565b60405180910390f35b6102ff60048036038101906102fa9190611ad2565b6109b9565b005b61031b60048036038101906103169190611bbe565b610aa7565b005b61033760048036038101906103329190611c7a565b610fdc565b005b610353600480360381019061034e91906115d4565b6111b2565b60405161036596959493929190611cba565b60405180910390f35b60606000600560008481526020019081526020016000206001015490506001600082815260200190815260200160002060020180546103ac90611d51565b80601f01602080910402602001604051908101604052809291908181526020018280546103d890611d51565b80156104255780601f106103fa57610100808354040283529160200191610425565b820191906000526020600020905b81548152906001019060200180831161040857829003601f168201915b5050505050915050919050565b61043a611422565b60016000600360008581526020019081526020016000206003015481526020019081526020016000206040518060c0016040529081600082015481526020016001820160009054906101000a900463ffffffff1663ffffffff1663ffffffff1681526020016001820160049054906101000a900463ffffffff1663ffffffff1663ffffffff1681526020016001820160089054906101000a900463ffffffff1663ffffffff1663ffffffff1681526020016002820180546104fa90611d51565b80601f016020809104026020016040519081016040528092919081815260200182805461052690611d51565b80156105735780601f1061054857610100808354040283529160200191610573565b820191906000526020600020905b81548152906001019060200180831161055657829003601f168201915b505050505081526020016003820160009054906101000a900473ffffffffffffffffffffffffffffffffffffffff1673ffffffffffffffffffffffffffffffffffffffff1673ffffffffffffffffffffffffffffffffffffffff16815250509050919050565b60036020528060005260406000206000915090508060000154908060030154905082565b60606003600083815260200190815260200160002060020180548060200260200160405190810160405280929190818152602001828054801561068557602002820191906000526020600020906000905b82829054906101000a900460ff1660ff168152602001906001019060208260000104928301926001038202915080841161064e5790505b50505050509050919050565b60066020528060005260406000206000915054906101000a900460ff1681565b6002600084815260200190815260200160002060009054906101000a900460ff1615610712576040517f08c379a000000000000000000000000000000000000000000000000000000000815260040161070990611dce565b60405180910390fd5b600060016000858152602001908152602001600020905060016002600086815260200190815260200160002060006101000a81548160ff02191690831515021790555060008160010160006101000a81548163ffffffff021916908363ffffffff16021790555060008160010160046101000a81548163ffffffff021916908363ffffffff16021790555060008160010160086101000a81548163ffffffff021916908363ffffffff16021790555082828260020191826107d4929190611fd4565b5050505050565b60056020528060005260406000206000915090508060010154905081565b606060016000838152602001908152602001600020600201805461081c90611d51565b80601f016020809104026020016040519081016040528092919081815260200182805461084890611d51565b80156108955780601f1061086a57610100808354040283529160200191610895565b820191906000526020600020905b81548152906001019060200180831161087857829003601f168201915b50505050509050919050565b60606000600360008481526020019081526020016000206003015490506001600082815260200190815260200160002060020180546108df90611d51565b80601f016020809104026020016040519081016040528092919081815260200182805461090b90611d51565b80156109585780601f1061092d57610100808354040283529160200191610958565b820191906000526020600020905b81548152906001019060200180831161093b57829003601f168201915b5050505050915050919050565b60008054906101000a900473ffffffffffffffffffffffffffffffffffffffff1681565b60006001600083815260200190815260200160002060010160009054906101000a900463ffffffff169050919050565b60008054906101000a900473ffffffffffffffffffffffffffffffffffffffff1673ffffffffffffffffffffffffffffffffffffffff163373ffffffffffffffffffffffffffffffffffffffff1614610a47576040517f08c379a0000000000000000000000000000000000000000000000000000000008152600401610a3e906120f0565b60405180910390fd5b60006001600084815260200190815260200160002090508160ff168160010160008282829054906101000a900463ffffffff16610a84919061213f565b92506101000a81548163ffffffff021916908363ffffffff160217905550505050565b60008054906101000a900473ffffffffffffffffffffffffffffffffffffffff1673ffffffffffffffffffffffffffffffffffffffff163373ffffffffffffffffffffffffffffffffffffffff1614610b35576040517f08c379a0000000000000000000000000000000000000000000000000000000008152600401610b2c906120f0565b60405180910390fd5b6002600086866000818110610b4d57610b4c612177565b5b90506020020135815260200190815260200160002060009054906101000a900460ff168015610bb357506002600086866001818110610b8f57610b8e612177565b5b90506020020135815260200190815260200160002060009054906101000a900460ff165b610bf2576040517f08c379a0000000000000000000000000000000000000000000000000000000008152600401610be9906121f2565b60405180910390fd5b6004600088815260200190815260200160002060009054906101000a900460ff1615610c53576040517f08c379a0000000000000000000000000000000000000000000000000000000008152600401610c4a9061225e565b60405180910390fd5b60028585905014610c99576040517f08c379a0000000000000000000000000000000000000000000000000000000008152600401610c90906122ca565b60405180910390fd5b60028383905014610cdf576040517f08c379a0000000000000000000000000000000000000000000000000000000008152600401610cd6906122ca565b60405180910390fd5b82826001818110610cf357610cf2612177565b5b9050602002016020810190610d0891906122ea565b60ff1683836000818110610d1f57610d1e612177565b5b9050602002016020810190610d3491906122ea565b60ff1603610d77576040517f08c379a0000000000000000000000000000000000000000000000000000000008152600401610d6e90612363565b60405180910390fd5b60006003600089815260200190815260200160002090506001600460008a815260200190815260200160002060006101000a81548160ff0219169083151502179055508681600001819055508585826001019190610dd6929190611480565b508383826002019190610dea9291906114cd565b50818160030181905550610ef2816040518060800160405290816000820154815260200160018201805480602002602001604051908101604052809291908181526020018280548015610e5c57602002820191906000526020600020905b815481526020019060010190808311610e48575b5050505050815260200160028201805480602002602001604051908101604052809291908181526020018280548015610eda57602002820191906000526020600020906000905b82829054906101000a900460ff1660ff1681526020019060010190602082600001049283019260010382029150808411610ea35790505b505050505081526020016003820154815250506112c6565b610f31576040517f08c379a0000000000000000000000000000000000000000000000000000000008152600401610f28906123cf565b60405180910390fd5b610f3d86868686611364565b60016000838152602001908152602001600020600101600481819054906101000a900463ffffffff1680929190610f73906123ef565b91906101000a81548163ffffffff021916908363ffffffff160217905550507f1c02ec7fba156cd56874d3f58bced35f6b71a3bd87527412093d65c53b52882788610fbc61141a565b604051610fca929190611826565b60405180910390a15050505050505050565b60008054906101000a900473ffffffffffffffffffffffffffffffffffffffff1673ffffffffffffffffffffffffffffffffffffffff163373ffffffffffffffffffffffffffffffffffffffff161461106a576040517f08c379a0000000000000000000000000000000000000000000000000000000008152600401611061906120f0565b60405180910390fd5b6002600082815260200190815260200160002060009054906101000a900460ff166110ca576040517f08c379a00000000000000000000000000000000000000000000000000000000081526004016110c190612467565b60405180910390fd5b600060056000848152602001908152602001600020905060016006600085815260200190815260200160002060006101000a81548160ff02191690831515021790555081816001018190555060016000838152602001908152602001600020600101600881819054906101000a900463ffffffff168092919061114c906123ef565b91906101000a81548163ffffffff021916908363ffffffff160217905550507f1cae41e18cedeb15387142fca839c2000030fd0b1b1bc52992f0be73b00eed4b838361119661141a565b6040516111a593929190612487565b60405180910390a1505050565b60016020528060005260406000206000915090508060000154908060010160009054906101000a900463ffffffff16908060010160049054906101000a900463ffffffff16908060010160089054906101000a900463ffffffff169080600201805461121d90611d51565b80601f016020809104026020016040519081016040528092919081815260200182805461124990611d51565b80156112965780601f1061126b57610100808354040283529160200191611296565b820191906000526020600020905b81548152906001019060200180831161127957829003601f168201915b5050505050908060030160009054906101000a900473ffffffffffffffffffffffffffffffffffffffff16905086565b6000806000905060005b83604001515181101561133657836040015182815181106112f4576112f3612177565b5b602002602001015160ff168460400151828151811061131657611315612177565b5b602002602001015160ff16111561132b578091505b8060010190506112d0565b508260200151818151811061134e5761134d612177565b5b6020026020010151836060015114915050919050565b60005b60028110156114135782828281811061138357611382612177565b5b905060200201602081019061139891906122ea565b60ff16600160008787858181106113b2576113b1612177565b5b90506020020135815260200190815260200160002060010160008282829054906101000a900463ffffffff166113e8919061213f565b92506101000a81548163ffffffff021916908363ffffffff1602179055508080600101915050611367565b5050505050565b600042905090565b6040518060c0016040528060008152602001600063ffffffff168152602001600063ffffffff168152602001600063ffffffff16815260200160608152602001600073ffffffffffffffffffffffffffffffffffffffff1681525090565b8280548282559060005260206000209081019282156114bc579160200282015b828111156114bb5782358255916020019190600101906114a0565b5b5090506114c99190611577565b5090565b82805482825590600052602060002090601f016020900481019282156115665791602002820160005b8382111561153757833560ff1683826101000a81548160ff021916908360ff16021790555092602001926001016020816000010492830192600103026114f6565b80156115645782816101000a81549060ff0219169055600101602081600001049283019260010302611537565b505b5090506115739190611577565b5090565b5b80821115611590576000816000905550600101611578565b5090565b600080fd5b600080fd5b6000819050919050565b6115b18161159e565b81146115bc57600080fd5b50565b6000813590506115ce816115a8565b92915050565b6000602082840312156115ea576115e9611594565b5b60006115f8848285016115bf565b91505092915050565b600081519050919050565b600082825260208201905092915050565b60005b8381101561163b578082015181840152602081019050611620565b60008484015250505050565b6000601f19601f8301169050919050565b600061166382611601565b61166d818561160c565b935061167d81856020860161161d565b61168681611647565b840191505092915050565b600060208201905081810360008301526116ab8184611658565b905092915050565b6116bc8161159e565b82525050565b600063ffffffff82169050919050565b6116db816116c2565b82525050565b600082825260208201905092915050565b60006116fd82611601565b61170781856116e1565b935061171781856020860161161d565b61172081611647565b840191505092915050565b600073ffffffffffffffffffffffffffffffffffffffff82169050919050565b60006117568261172b565b9050919050565b6117668161174b565b82525050565b600060c08301600083015161178460008601826116b3565b50602083015161179760208601826116d2565b5060408301516117aa60408601826116d2565b5060608301516117bd60608601826116d2565b50608083015184820360808601526117d582826116f2565b91505060a08301516117ea60a086018261175d565b508091505092915050565b6000602082019050818103600083015261180f818461176c565b905092915050565b6118208161159e565b82525050565b600060408201905061183b6000830185611817565b6118486020830184611817565b9392505050565b600081519050919050565b600082825260208201905092915050565b6000819050602082019050919050565b600060ff82169050919050565b6118918161187b565b82525050565b60006118a38383611888565b60208301905092915050565b6000602082019050919050565b60006118c78261184f565b6118d1818561185a565b93506118dc8361186b565b8060005b8381101561190d5781516118f48882611897565b97506118ff836118af565b9250506001810190506118e0565b5085935050505092915050565b6000602082019050818103600083015261193481846118bc565b905092915050565b60008115159050919050565b6119518161193c565b82525050565b600060208201905061196c6000830184611948565b92915050565b600080fd5b600080fd5b600080fd5b60008083601f84011261199757611996611972565b5b8235905067ffffffffffffffff8111156119b4576119b3611977565b5b6020830191508360018202830111156119d0576119cf61197c565b5b9250929050565b6000806000604084860312156119f0576119ef611594565b5b60006119fe868287016115bf565b935050602084013567ffffffffffffffff811115611a1f57611a1e611599565b5b611a2b86828701611981565b92509250509250925092565b6000602082019050611a4c6000830184611817565b92915050565b611a5b8161174b565b82525050565b6000602082019050611a766000830184611a52565b92915050565b611a85816116c2565b82525050565b6000602082019050611aa06000830184611a7c565b92915050565b611aaf8161187b565b8114611aba57600080fd5b50565b600081359050611acc81611aa6565b92915050565b60008060408385031215611ae957611ae8611594565b5b6000611af7858286016115bf565b9250506020611b0885828601611abd565b9150509250929050565b60008083601f840112611b2857611b27611972565b5b8235905067ffffffffffffffff811115611b4557611b44611977565b5b602083019150836020820283011115611b6157611b6061197c565b5b9250929050565b60008083601f840112611b7e57611b7d611972565b5b8235905067ffffffffffffffff811115611b9b57611b9a611977565b5b602083019150836020820283011115611bb757611bb661197c565b5b9250929050565b600080600080600080600060a0888a031215611bdd57611bdc611594565b5b6000611beb8a828b016115bf565b9750506020611bfc8a828b016115bf565b965050604088013567ffffffffffffffff811115611c1d57611c1c611599565b5b611c298a828b01611b12565b9550955050606088013567ffffffffffffffff811115611c4c57611c4b611599565b5b611c588a828b01611b68565b93509350506080611c6b8a828b016115bf565b91505092959891949750929550565b60008060408385031215611c9157611c90611594565b5b6000611c9f858286016115bf565b9250506020611cb0858286016115bf565b9150509250929050565b600060c082019050611ccf6000830189611817565b611cdc6020830188611a7c565b611ce96040830187611a7c565b611cf66060830186611a7c565b8181036080830152611d088185611658565b9050611d1760a0830184611a52565b979650505050505050565b7f4e487b7100000000000000000000000000000000000000000000000000000000600052602260045260246000fd5b60006002820490506001821680611d6957607f821691505b602082108103611d7c57611d7b611d22565b5b50919050565b7f506c6179657220616c7265616479206578697374730000000000000000000000600082015250565b6000611db860158361160c565b9150611dc382611d82565b602082019050919050565b60006020820190508181036000830152611de781611dab565b9050919050565b600082905092915050565b7f4e487b7100000000000000000000000000000000000000000000000000000000600052604160045260246000fd5b60008190508160005260206000209050919050565b60006020601f8301049050919050565b600082821b905092915050565b600060088302611e8a7fffffffffffffffffffffffffffffffffffffffffffffffffffffffffffffffff82611e4d565b611e948683611e4d565b95508019841693508086168417925050509392505050565b6000819050919050565b6000611ed1611ecc611ec78461159e565b611eac565b61159e565b9050919050565b6000819050919050565b611eeb83611eb6565b611eff611ef782611ed8565b848454611e5a565b825550505050565b600090565b611f14611f07565b611f1f818484611ee2565b505050565b5b81811015611f4357611f38600082611f0c565b600181019050611f25565b5050565b601f821115611f8857611f5981611e28565b611f6284611e3d565b81016020851015611f71578190505b611f85611f7d85611e3d565b830182611f24565b50505b505050565b600082821c905092915050565b6000611fab60001984600802611f8d565b1980831691505092915050565b6000611fc48383611f9a565b9150826002028217905092915050565b611fde8383611dee565b67ffffffffffffffff811115611ff757611ff6611df9565b5b6120018254611d51565b61200c828285611f47565b6000601f83116001811461203b5760008415612029578287013590505b6120338582611fb8565b86555061209b565b601f19841661204986611e28565b60005b828110156120715784890135825560018201915060208501945060208101905061204c565b8683101561208e578489013561208a601f891682611f9a565b8355505b6001600288020188555050505b50505050505050565b7f43616c6c6572206973206e6f7420746865206f776e6572000000000000000000600082015250565b60006120da60178361160c565b91506120e5826120a4565b602082019050919050565b60006020820190508181036000830152612109816120cd565b9050919050565b7f4e487b7100000000000000000000000000000000000000000000000000000000600052601160045260246000fd5b600061214a826116c2565b9150612155836116c2565b9250828201905063ffffffff81111561217157612170612110565b5b92915050565b7f4e487b7100000000000000000000000000000000000000000000000000000000600052603260045260246000fd5b7f556e6b6e6f776e20706c61796572000000000000000000000000000000000000600082015250565b60006121dc600e8361160c565b91506121e7826121a6565b602082019050919050565b6000602082019050818103600083015261220b816121cf565b9050919050565b7f4d6174636820616c726561647920657869737473000000000000000000000000600082015250565b600061224860148361160c565b915061225382612212565b602082019050919050565b600060208201905081810360008301526122778161223b565b9050919050565b7f5265676973746572696e67206f6e6c79203176312067616d6573000000000000600082015250565b60006122b4601a8361160c565b91506122bf8261227e565b602082019050919050565b600060208201905081810360008301526122e3816122a7565b9050919050565b600060208284031215612300576122ff611594565b5b600061230e84828501611abd565b91505092915050565b7f447261772067616d6573206e6f7420737570706f727465640000000000000000600082015250565b600061234d60188361160c565b915061235882612317565b602082019050919050565b6000602082019050818103600083015261237c81612340565b9050919050565b7f57696e6e6572206973206e6f7420636f72726563740000000000000000000000600082015250565b60006123b960158361160c565b91506123c482612383565b602082019050919050565b600060208201905081810360008301526123e8816123ac565b9050919050565b60006123fa826116c2565b915063ffffffff82036124105761240f612110565b5b600182019050919050565b7f54686520706c6179657220646f6573206e6f7420657869737400000000000000600082015250565b600061245160198361160c565b915061245c8261241b565b602082019050919050565b6000602082019050818103600083015261248081612444565b9050919050565b600060608201905061249c6000830186611817565b6124a96020830185611817565b6124b66040830184611817565b94935050505056fea26469706673582212206f41c3767a519d82ba5b1f24d16dfd8b5c4f45be000c224276938f8741de345464736f6c63430008180033",
  "linkReferences": {},
  "deployedLinkReferences": {}
}